{
  "contractName": "TestNFT",
  "abi": [
    {
      "inputs": [
        {
          "internalType": "string",
          "name": "name_",
          "type": "string"
        },
        {
          "internalType": "string",
          "name": "symbol_",
          "type": "string"
        }
      ],
      "stateMutability": "nonpayable",
      "type": "constructor"
    },
    {
      "anonymous": false,
      "inputs": [
        {
          "indexed": true,
          "internalType": "address",
          "name": "owner",
          "type": "address"
        },
        {
          "indexed": true,
          "internalType": "address",
          "name": "approved",
          "type": "address"
        },
        {
          "indexed": true,
          "internalType": "uint256",
          "name": "tokenId",
          "type": "uint256"
        }
      ],
      "name": "Approval",
      "type": "event"
    },
    {
      "anonymous": false,
      "inputs": [
        {
          "indexed": true,
          "internalType": "address",
          "name": "owner",
          "type": "address"
        },
        {
          "indexed": true,
          "internalType": "address",
          "name": "operator",
          "type": "address"
        },
        {
          "indexed": false,
          "internalType": "bool",
          "name": "approved",
          "type": "bool"
        }
      ],
      "name": "ApprovalForAll",
      "type": "event"
    },
    {
      "anonymous": false,
      "inputs": [
        {
          "indexed": true,
          "internalType": "bytes32",
          "name": "role",
          "type": "bytes32"
        },
        {
          "indexed": true,
          "internalType": "bytes32",
          "name": "previousAdminRole",
          "type": "bytes32"
        },
        {
          "indexed": true,
          "internalType": "bytes32",
          "name": "newAdminRole",
          "type": "bytes32"
        }
      ],
      "name": "RoleAdminChanged",
      "type": "event"
    },
    {
      "anonymous": false,
      "inputs": [
        {
          "indexed": true,
          "internalType": "bytes32",
          "name": "role",
          "type": "bytes32"
        },
        {
          "indexed": true,
          "internalType": "address",
          "name": "account",
          "type": "address"
        },
        {
          "indexed": true,
          "internalType": "address",
          "name": "sender",
          "type": "address"
        }
      ],
      "name": "RoleGranted",
      "type": "event"
    },
    {
      "anonymous": false,
      "inputs": [
        {
          "indexed": true,
          "internalType": "bytes32",
          "name": "role",
          "type": "bytes32"
        },
        {
          "indexed": true,
          "internalType": "address",
          "name": "account",
          "type": "address"
        },
        {
          "indexed": true,
          "internalType": "address",
          "name": "sender",
          "type": "address"
        }
      ],
      "name": "RoleRevoked",
      "type": "event"
    },
    {
      "anonymous": false,
      "inputs": [
        {
          "indexed": true,
          "internalType": "address",
          "name": "from",
          "type": "address"
        },
        {
          "indexed": true,
          "internalType": "address",
          "name": "to",
          "type": "address"
        },
        {
          "indexed": true,
          "internalType": "uint256",
          "name": "tokenId",
          "type": "uint256"
        }
      ],
      "name": "Transfer",
      "type": "event"
    },
    {
      "inputs": [],
      "name": "DEFAULT_ADMIN_ROLE",
      "outputs": [
        {
          "internalType": "bytes32",
          "name": "",
          "type": "bytes32"
        }
      ],
      "stateMutability": "view",
      "type": "function",
      "constant": true
    },
    {
      "inputs": [],
      "name": "MINTER_ROLE",
      "outputs": [
        {
          "internalType": "bytes32",
          "name": "",
          "type": "bytes32"
        }
      ],
      "stateMutability": "view",
      "type": "function",
      "constant": true
    },
    {
      "inputs": [],
      "name": "PAUSER_ROLE",
      "outputs": [
        {
          "internalType": "bytes32",
          "name": "",
          "type": "bytes32"
        }
      ],
      "stateMutability": "view",
      "type": "function",
      "constant": true
    },
    {
      "inputs": [
        {
          "internalType": "address",
          "name": "to",
          "type": "address"
        },
        {
          "internalType": "uint256",
          "name": "tokenId",
          "type": "uint256"
        }
      ],
      "name": "approve",
      "outputs": [],
      "stateMutability": "nonpayable",
      "type": "function"
    },
    {
      "inputs": [
        {
          "internalType": "address",
          "name": "owner",
          "type": "address"
        }
      ],
      "name": "balanceOf",
      "outputs": [
        {
          "internalType": "uint256",
          "name": "",
          "type": "uint256"
        }
      ],
      "stateMutability": "view",
      "type": "function",
      "constant": true
    },
    {
      "inputs": [
        {
          "internalType": "uint256",
          "name": "tokenId",
          "type": "uint256"
        }
      ],
      "name": "getApproved",
      "outputs": [
        {
          "internalType": "address",
          "name": "",
          "type": "address"
        }
      ],
      "stateMutability": "view",
      "type": "function",
      "constant": true
    },
    {
      "inputs": [
        {
          "internalType": "bytes32",
          "name": "role",
          "type": "bytes32"
        }
      ],
      "name": "getRoleAdmin",
      "outputs": [
        {
          "internalType": "bytes32",
          "name": "",
          "type": "bytes32"
        }
      ],
      "stateMutability": "view",
      "type": "function",
      "constant": true
    },
    {
      "inputs": [
        {
          "internalType": "bytes32",
          "name": "role",
          "type": "bytes32"
        },
        {
          "internalType": "uint256",
          "name": "index",
          "type": "uint256"
        }
      ],
      "name": "getRoleMember",
      "outputs": [
        {
          "internalType": "address",
          "name": "",
          "type": "address"
        }
      ],
      "stateMutability": "view",
      "type": "function",
      "constant": true
    },
    {
      "inputs": [
        {
          "internalType": "bytes32",
          "name": "role",
          "type": "bytes32"
        }
      ],
      "name": "getRoleMemberCount",
      "outputs": [
        {
          "internalType": "uint256",
          "name": "",
          "type": "uint256"
        }
      ],
      "stateMutability": "view",
      "type": "function",
      "constant": true
    },
    {
      "inputs": [
        {
          "internalType": "bytes32",
          "name": "role",
          "type": "bytes32"
        },
        {
          "internalType": "address",
          "name": "account",
          "type": "address"
        }
      ],
      "name": "grantRole",
      "outputs": [],
      "stateMutability": "nonpayable",
      "type": "function"
    },
    {
      "inputs": [
        {
          "internalType": "bytes32",
          "name": "role",
          "type": "bytes32"
        },
        {
          "internalType": "address",
          "name": "account",
          "type": "address"
        }
      ],
      "name": "hasRole",
      "outputs": [
        {
          "internalType": "bool",
          "name": "",
          "type": "bool"
        }
      ],
      "stateMutability": "view",
      "type": "function",
      "constant": true
    },
    {
      "inputs": [
        {
          "internalType": "address",
          "name": "owner",
          "type": "address"
        },
        {
          "internalType": "address",
          "name": "operator",
          "type": "address"
        }
      ],
      "name": "isApprovedForAll",
      "outputs": [
        {
          "internalType": "bool",
          "name": "",
          "type": "bool"
        }
      ],
      "stateMutability": "view",
      "type": "function",
      "constant": true
    },
    {
      "inputs": [],
      "name": "name",
      "outputs": [
        {
          "internalType": "string",
          "name": "",
          "type": "string"
        }
      ],
      "stateMutability": "view",
      "type": "function",
      "constant": true
    },
    {
      "inputs": [
        {
          "internalType": "uint256",
          "name": "tokenId",
          "type": "uint256"
        }
      ],
      "name": "ownerOf",
      "outputs": [
        {
          "internalType": "address",
          "name": "",
          "type": "address"
        }
      ],
      "stateMutability": "view",
      "type": "function",
      "constant": true
    },
    {
      "inputs": [
        {
          "internalType": "bytes32",
          "name": "role",
          "type": "bytes32"
        },
        {
          "internalType": "address",
          "name": "account",
          "type": "address"
        }
      ],
      "name": "renounceRole",
      "outputs": [],
      "stateMutability": "nonpayable",
      "type": "function"
    },
    {
      "inputs": [
        {
          "internalType": "bytes32",
          "name": "role",
          "type": "bytes32"
        },
        {
          "internalType": "address",
          "name": "account",
          "type": "address"
        }
      ],
      "name": "revokeRole",
      "outputs": [],
      "stateMutability": "nonpayable",
      "type": "function"
    },
    {
      "inputs": [
        {
          "internalType": "address",
          "name": "from",
          "type": "address"
        },
        {
          "internalType": "address",
          "name": "to",
          "type": "address"
        },
        {
          "internalType": "uint256",
          "name": "tokenId",
          "type": "uint256"
        }
      ],
      "name": "safeTransferFrom",
      "outputs": [],
      "stateMutability": "nonpayable",
      "type": "function"
    },
    {
      "inputs": [
        {
          "internalType": "address",
          "name": "from",
          "type": "address"
        },
        {
          "internalType": "address",
          "name": "to",
          "type": "address"
        },
        {
          "internalType": "uint256",
          "name": "tokenId",
          "type": "uint256"
        },
        {
          "internalType": "bytes",
          "name": "data",
          "type": "bytes"
        }
      ],
      "name": "safeTransferFrom",
      "outputs": [],
      "stateMutability": "nonpayable",
      "type": "function"
    },
    {
      "inputs": [
        {
          "internalType": "address",
          "name": "operator",
          "type": "address"
        },
        {
          "internalType": "bool",
          "name": "approved",
          "type": "bool"
        }
      ],
      "name": "setApprovalForAll",
      "outputs": [],
      "stateMutability": "nonpayable",
      "type": "function"
    },
    {
      "inputs": [],
      "name": "symbol",
      "outputs": [
        {
          "internalType": "string",
          "name": "",
          "type": "string"
        }
      ],
      "stateMutability": "view",
      "type": "function",
      "constant": true
    },
    {
      "inputs": [
        {
          "internalType": "uint256",
          "name": "index",
          "type": "uint256"
        }
      ],
      "name": "tokenByIndex",
      "outputs": [
        {
          "internalType": "uint256",
          "name": "",
          "type": "uint256"
        }
      ],
      "stateMutability": "view",
      "type": "function",
      "constant": true
    },
    {
      "inputs": [
        {
          "internalType": "uint256",
          "name": "",
          "type": "uint256"
        }
      ],
      "name": "tokenFeatureCode",
      "outputs": [
        {
          "internalType": "uint256",
          "name": "",
          "type": "uint256"
        }
      ],
      "stateMutability": "view",
      "type": "function",
      "constant": true
    },
    {
      "inputs": [
        {
          "internalType": "address",
          "name": "owner",
          "type": "address"
        },
        {
          "internalType": "uint256",
          "name": "index",
          "type": "uint256"
        }
      ],
      "name": "tokenOfOwnerByIndex",
      "outputs": [
        {
          "internalType": "uint256",
          "name": "",
          "type": "uint256"
        }
      ],
      "stateMutability": "view",
      "type": "function",
      "constant": true
    },
    {
      "inputs": [
        {
          "internalType": "uint256",
          "name": "offset",
          "type": "uint256"
        },
        {
          "internalType": "uint256",
          "name": "limit",
          "type": "uint256"
        }
      ],
      "name": "tokens",
      "outputs": [
        {
          "internalType": "uint256",
          "name": "total",
          "type": "uint256"
        },
        {
          "internalType": "uint256[]",
          "name": "tokenIds",
          "type": "uint256[]"
        }
      ],
      "stateMutability": "view",
      "type": "function",
      "constant": true
    },
    {
      "inputs": [
        {
          "internalType": "address",
          "name": "owner",
          "type": "address"
        },
        {
          "internalType": "uint256",
          "name": "offset",
          "type": "uint256"
        },
        {
          "internalType": "uint256",
          "name": "limit",
          "type": "uint256"
        }
      ],
      "name": "tokensOf",
      "outputs": [
        {
          "internalType": "uint256",
          "name": "total",
          "type": "uint256"
        },
        {
          "internalType": "uint256[]",
          "name": "tokenIds",
          "type": "uint256[]"
        }
      ],
      "stateMutability": "view",
      "type": "function",
      "constant": true
    },
    {
      "inputs": [],
      "name": "totalSupply",
      "outputs": [
        {
          "internalType": "uint256",
          "name": "",
          "type": "uint256"
        }
      ],
      "stateMutability": "view",
      "type": "function",
      "constant": true
    },
    {
      "inputs": [
        {
          "internalType": "address",
          "name": "from",
          "type": "address"
        },
        {
          "internalType": "address",
          "name": "to",
          "type": "address"
        },
        {
          "internalType": "uint256",
          "name": "tokenId",
          "type": "uint256"
        }
      ],
      "name": "transferFrom",
      "outputs": [],
      "stateMutability": "nonpayable",
      "type": "function"
    },
    {
      "inputs": [
        {
          "internalType": "address",
          "name": "minter_",
          "type": "address"
        }
      ],
      "name": "addMinter",
      "outputs": [],
      "stateMutability": "nonpayable",
      "type": "function"
    },
    {
      "inputs": [
        {
          "internalType": "address",
          "name": "minter_",
          "type": "address"
        }
      ],
      "name": "removeMinter",
      "outputs": [],
      "stateMutability": "nonpayable",
      "type": "function"
    },
    {
      "inputs": [
        {
          "internalType": "uint256",
          "name": "tokenId",
          "type": "uint256"
        }
      ],
      "name": "tokenURI",
      "outputs": [
        {
          "internalType": "string",
          "name": "",
          "type": "string"
        }
      ],
      "stateMutability": "view",
      "type": "function",
      "constant": true
    },
    {
      "inputs": [
        {
          "internalType": "address",
          "name": "to",
          "type": "address"
        }
      ],
      "name": "mint",
      "outputs": [],
      "stateMutability": "nonpayable",
      "type": "function"
    },
    {
      "inputs": [
        {
          "internalType": "address",
          "name": "to",
          "type": "address"
        },
        {
          "internalType": "uint256",
          "name": "amount",
          "type": "uint256"
        }
      ],
      "name": "mintBatch",
      "outputs": [],
      "stateMutability": "nonpayable",
      "type": "function"
    },
    {
      "inputs": [
        {
          "internalType": "address[]",
          "name": "_initialOwners",
          "type": "address[]"
        }
      ],
      "name": "batchAddItemByAddress",
      "outputs": [],
      "stateMutability": "nonpayable",
      "type": "function"
    },
    {
      "inputs": [
        {
          "internalType": "uint256",
          "name": "tokenId",
          "type": "uint256"
        },
        {
          "internalType": "uint256",
          "name": "featureCode",
          "type": "uint256"
        }
      ],
      "name": "setTokenFeatureCode",
      "outputs": [],
      "stateMutability": "nonpayable",
      "type": "function"
    },
    {
      "inputs": [
        {
          "internalType": "bytes4",
          "name": "interfaceId",
          "type": "bytes4"
        }
      ],
      "name": "supportsInterface",
      "outputs": [
        {
          "internalType": "bool",
          "name": "",
          "type": "bool"
        }
      ],
      "stateMutability": "view",
      "type": "function",
      "constant": true
    }
  ],
  "bytecode": "0x60806040523480156200001157600080fd5b50604051620057a4380380620057a48339818101604052810190620000379190620008b0565b81818160029080519060200190620000519291906200074b565b5080600390805190602001906200006a9291906200074b565b5050506200007d6200044a60201b60201c565b620000885762000394565b6000600167ffffffffffffffff811115620000cc577f4e487b7100000000000000000000000000000000000000000000000000000000600052604160045260246000fd5b604051908082528060200260200182016040528015620000fb5781602001602082028036833780820191505090505b5090506000816000815181106200013b577f4e487b7100000000000000000000000000000000000000000000000000000000600052603260045260246000fd5b602002602001019073ffffffffffffffffffffffffffffffffffffffff16908173ffffffffffffffffffffffffffffffffffffffff168152505073088800000000000000000000000000000000000173ffffffffffffffffffffffffffffffffffffffff166310128d3e826040518263ffffffff1660e01b8152600401620001c4919062000a3a565b600060405180830381600087803b158015620001df57600080fd5b505af1158015620001f4573d6000803e3d6000fd5b5050505073088800000000000000000000000000000000000073ffffffffffffffffffffffffffffffffffffffff1663c55b6bb73060006040518363ffffffff1660e01b81526004016200024a92919062000a0d565b600060405180830381600087803b1580156200026557600080fd5b505af11580156200027a573d6000803e3d6000fd5b50505050600073ffffffffffffffffffffffffffffffffffffffff1673088800000000000000000000000000000000000073ffffffffffffffffffffffffffffffffffffffff166364efb22b306040518263ffffffff1660e01b8152600401620002e59190620009f0565b60206040518083038186803b158015620002fe57600080fd5b505afa15801562000313573d6000803e3d6000fd5b505050506040513d601f19601f8201168201806040525081019062000339919062000884565b73ffffffffffffffffffffffffffffffffffffffff161462000392576040517f08c379a0000000000000000000000000000000000000000000000000000000008152600401620003899062000a5e565b60405180910390fd5b505b620003b86000801b620003ac6200049260201b60201c565b6200049a60201b60201c565b620003f97f9f2df0fed2c77648de5860a4cc508cd0818c85b8b8a1ab4ceeef8d981c8956a6620003ed6200049260201b60201c565b6200049a60201b60201c565b6200043a7f65d7a28e3265b37a6474929f336521b332c1681b933f6cb9f3376673440d862a6200042e6200049260201b60201c565b6200049a60201b60201c565b6001600d81905550505062000cb1565b60006200048c731820a4b7618bde71dce8cdc73aab6c95905fad2473ffffffffffffffffffffffffffffffffffffffff16620004b060201b620017df1760201c565b15905090565b600033905090565b620004ac8282620004d360201b60201c565b5050565b6000808273ffffffffffffffffffffffffffffffffffffffff163b119050919050565b620004ea82826200051b60201b620018021760201c565b6200051681600160008581526020019081526020016000206200060c60201b620018e21790919060201c565b505050565b6200052d82826200064460201b60201c565b6200060857600160008084815260200190815260200160002060000160008373ffffffffffffffffffffffffffffffffffffffff1673ffffffffffffffffffffffffffffffffffffffff16815260200190815260200160002060006101000a81548160ff021916908315150217905550620005ad6200049260201b60201c565b73ffffffffffffffffffffffffffffffffffffffff168173ffffffffffffffffffffffffffffffffffffffff16837f2f8788117e7eff1d82e926ec794901d17c78024a50270940304540a733656f0d60405160405180910390a45b5050565b60006200063c836000018373ffffffffffffffffffffffffffffffffffffffff1660001b620006ae60201b60201c565b905092915050565b600080600084815260200190815260200160002060000160008373ffffffffffffffffffffffffffffffffffffffff1673ffffffffffffffffffffffffffffffffffffffff16815260200190815260200160002060009054906101000a900460ff16905092915050565b6000620006c283836200072860201b60201c565b6200071d57826000018290806001815401808255809150506001900390600052602060002001600090919091909150558260000180549050836001016000848152602001908152602001600020819055506001905062000722565b600090505b92915050565b600080836001016000848152602001908152602001600020541415905092915050565b828054620007599062000b93565b90600052602060002090601f0160209004810192826200077d5760008555620007c9565b82601f106200079857805160ff1916838001178555620007c9565b82800160010185558215620007c9579182015b82811115620007c8578251825591602001919060010190620007ab565b5b509050620007d89190620007dc565b5090565b5b80821115620007f7576000816000905550600101620007dd565b5090565b6000620008126200080c8462000aa9565b62000a80565b9050828152602081018484840111156200082b57600080fd5b6200083884828562000b5d565b509392505050565b600081519050620008518162000c97565b92915050565b600082601f8301126200086957600080fd5b81516200087b848260208601620007fb565b91505092915050565b6000602082840312156200089757600080fd5b6000620008a78482850162000840565b91505092915050565b60008060408385031215620008c457600080fd5b600083015167ffffffffffffffff811115620008df57600080fd5b620008ed8582860162000857565b925050602083015167ffffffffffffffff8111156200090b57600080fd5b620009198582860162000857565b9150509250929050565b60006200093183836200093d565b60208301905092915050565b620009488162000b29565b82525050565b620009598162000b29565b82525050565b60006200096c8262000aef565b62000978818562000b07565b9350620009858362000adf565b8060005b83811015620009bc578151620009a0888262000923565b9750620009ad8362000afa565b92505060018101905062000989565b5085935050505092915050565b6000620009d860158362000b18565b9150620009e58262000c6e565b602082019050919050565b600060208201905062000a0760008301846200094e565b92915050565b600060408201905062000a2460008301856200094e565b62000a3360208301846200094e565b9392505050565b6000602082019050818103600083015262000a5681846200095f565b905092915050565b6000602082019050818103600083015262000a7981620009c9565b9050919050565b600062000a8c62000a9f565b905062000a9a828262000bc9565b919050565b6000604051905090565b600067ffffffffffffffff82111562000ac75762000ac662000c2e565b5b62000ad28262000c5d565b9050602081019050919050565b6000819050602082019050919050565b600081519050919050565b6000602082019050919050565b600082825260208201905092915050565b600082825260208201905092915050565b600062000b368262000b3d565b9050919050565b600073ffffffffffffffffffffffffffffffffffffffff82169050919050565b60005b8381101562000b7d57808201518184015260208101905062000b60565b8381111562000b8d576000848401525b50505050565b6000600282049050600182168062000bac57607f821691505b6020821081141562000bc35762000bc262000bff565b5b50919050565b62000bd48262000c5d565b810181811067ffffffffffffffff8211171562000bf65762000bf562000c2e565b5b80604052505050565b7f4e487b7100000000000000000000000000000000000000000000000000000000600052602260045260246000fd5b7f4e487b7100000000000000000000000000000000000000000000000000000000600052604160045260246000fd5b6000601f19601f8301169050919050565b7f726571756972652061646d696e203d3d206e756c6c0000000000000000000000600082015250565b62000ca28162000b29565b811462000cae57600080fd5b50565b614ae38062000cc16000396000f3fe608060405234801561001057600080fd5b50600436106102115760003560e01c80636352211e11610125578063a22cb465116100ad578063d53913931161007c578063d53913931461066c578063d547741f1461068a578063e63ab1e9146106a6578063e985e9c5146106c4578063f65a60cb146106f457610211565b8063a22cb465146105d4578063b88d4fde146105f0578063c87b56dd1461060c578063ca15c8731461063c57610211565b80639010d07c116100f45780639010d07c1461051c57806391d148541461054c57806395d89b411461057c578063983b2d561461059a578063a217fddf146105b657610211565b80636352211e1461046f5780636a6278421461049f57806370a08231146104bb5780638b4864d6146104eb57610211565b8063248a9ca3116101a85780633092afd5116101775780633092afd5146103cf57806336568abe146103eb57806342842e0e146104075780634f6ccce71461042357806354777f411461045357610211565b8063248a9ca314610337578063248b71fc146103675780632f2ff15d146103835780632f745c591461039f57610211565b806318160ddd116101e457806318160ddd146102b05780631d61c7e1146102ce57806323185dc9146102ea57806323b872dd1461031b57610211565b806301ffc9a71461021657806306fdde0314610246578063081812fc14610264578063095ea7b314610294575b600080fd5b610230600480360381019061022b91906137c7565b610724565b60405161023d9190613d91565b60405180910390f35b61024e610746565b60405161025b9190613dc7565b60405180910390f35b61027e60048036038101906102799190613819565b6107d8565b60405161028b9190613d2a565b60405180910390f35b6102ae60048036038101906102a99190613656565b61081e565b005b6102b8610936565b6040516102c59190614029565b60405180910390f35b6102e860048036038101906102e39190613842565b610943565b005b61030460048036038101906102ff9190613692565b610a25565b604051610312929190614044565b60405180910390f35b61033560048036038101906103309190613550565b610be6565b005b610351600480360381019061034c9190613726565b610c46565b60405161035e9190613dac565b60405180910390f35b610381600480360381019061037c9190613656565b610c65565b005b61039d6004803603810190610398919061374f565b610d25565b005b6103b960048036038101906103b49190613656565b610d46565b6040516103c69190614029565b60405180910390f35b6103e960048036038101906103e491906134eb565b610deb565b005b6104056004803603810190610400919061374f565b610e18565b005b610421600480360381019061041c9190613550565b610e9b565b005b61043d60048036038101906104389190613819565b610ebb565b60405161044a9190614029565b60405180910390f35b61046d600480360381019061046891906136e1565b610f52565b005b61048960048036038101906104849190613819565b611068565b6040516104969190613d2a565b60405180910390f35b6104b960048036038101906104b491906134eb565b61111a565b005b6104d560048036038101906104d091906134eb565b6111b2565b6040516104e29190614029565b60405180910390f35b61050560048036038101906105009190613842565b61126a565b604051610513929190614044565b60405180910390f35b6105366004803603810190610531919061378b565b611428565b6040516105439190613d2a565b60405180910390f35b6105666004803603810190610561919061374f565b611457565b6040516105739190613d91565b60405180910390f35b6105846114c1565b6040516105919190613dc7565b60405180910390f35b6105b460048036038101906105af91906134eb565b611553565b005b6105be611580565b6040516105cb9190613dac565b60405180910390f35b6105ee60048036038101906105e9919061361a565b611587565b005b61060a6004803603810190610605919061359f565b61159d565b005b61062660048036038101906106219190613819565b6115ff565b6040516106339190613dc7565b60405180910390f35b61065660048036038101906106519190613726565b6116a6565b6040516106639190614029565b60405180910390f35b6106746116ca565b6040516106819190613dac565b60405180910390f35b6106a4600480360381019061069f919061374f565b6116ee565b005b6106ae61170f565b6040516106bb9190613dac565b60405180910390f35b6106de60048036038101906106d99190613514565b611733565b6040516106eb9190613d91565b60405180910390f35b61070e60048036038101906107099190613819565b6117c7565b60405161071b9190614029565b60405180910390f35b600061072f82611912565b8061073f575061073e8261198c565b5b9050919050565b60606002805461075590614345565b80601f016020809104026020016040519081016040528092919081815260200182805461078190614345565b80156107ce5780601f106107a3576101008083540402835291602001916107ce565b820191906000526020600020905b8154815290600101906020018083116107b157829003601f168201915b5050505050905090565b60006107e382611a06565b6006600083815260200190815260200160002060009054906101000a900473ffffffffffffffffffffffffffffffffffffffff169050919050565b600061082982611068565b90508073ffffffffffffffffffffffffffffffffffffffff168373ffffffffffffffffffffffffffffffffffffffff16141561089a576040517f08c379a000000000000000000000000000000000000000000000000000000000815260040161089190613fa9565b60405180910390fd5b8073ffffffffffffffffffffffffffffffffffffffff166108b9611a51565b73ffffffffffffffffffffffffffffffffffffffff1614806108e857506108e7816108e2611a51565b611733565b5b610927576040517f08c379a000000000000000000000000000000000000000000000000000000000815260040161091e90613f09565b60405180910390fd5b6109318383611a59565b505050565b6000600a80549050905090565b6109747f9f2df0fed2c77648de5860a4cc508cd0818c85b8b8a1ab4ceeef8d981c8956a661096f611a51565b611457565b6109b3576040517f08c379a00000000000000000000000000000000000000000000000000000000081526004016109aa90613ec9565b60405180910390fd5b6000600c60008481526020019081526020016000205414610a09576040517f08c379a0000000000000000000000000000000000000000000000000000000008152600401610a0090613f49565b60405180910390fd5b80600c6000848152602001908152602001600020819055505050565b60006060610a32856111b2565b91506000821480610a435750818410155b15610ac25781600067ffffffffffffffff811115610a8a577f4e487b7100000000000000000000000000000000000000000000000000000000600052604160045260246000fd5b604051908082528060200260200182016040528015610ab85781602001602082028036833780820191505090505b5091509150610bde565b6000610ae28486610ad39190614146565b84611b1290919063ffffffff16565b90508481610af09190614227565b67ffffffffffffffff811115610b2f577f4e487b7100000000000000000000000000000000000000000000000000000000600052604160045260246000fd5b604051908082528060200260200182016040528015610b5d5781602001602082028036833780820191505090505b50915060008590505b81811015610bdb57610b788782610d46565b838783610b859190614227565b81518110610bbc577f4e487b7100000000000000000000000000000000000000000000000000000000600052603260045260246000fd5b6020026020010181815250508080610bd3906143a8565b915050610b66565b50505b935093915050565b610bf7610bf1611a51565b82611b2b565b610c36576040517f08c379a0000000000000000000000000000000000000000000000000000000008152600401610c2d90613fe9565b60405180910390fd5b610c41838383611bc0565b505050565b6000806000838152602001908152602001600020600101549050919050565b610c967f9f2df0fed2c77648de5860a4cc508cd0818c85b8b8a1ab4ceeef8d981c8956a6610c91611a51565b611457565b610cd5576040517f08c379a0000000000000000000000000000000000000000000000000000000008152600401610ccc90613ec9565b60405180910390fd5b6000600d54905060005b82811015610d0d57610cfc848284610cf79190614146565b611e27565b80610d06906143a8565b9050610cdf565b508181610d1a9190614146565b600d81905550505050565b610d2e82610c46565b610d3781612001565b610d418383612015565b505050565b6000610d51836111b2565b8210610d92576040517f08c379a0000000000000000000000000000000000000000000000000000000008152600401610d8990613e09565b60405180910390fd5b600860008473ffffffffffffffffffffffffffffffffffffffff1673ffffffffffffffffffffffffffffffffffffffff168152602001908152602001600020600083815260200190815260200160002054905092915050565b610e157f9f2df0fed2c77648de5860a4cc508cd0818c85b8b8a1ab4ceeef8d981c8956a6826116ee565b50565b610e20611a51565b73ffffffffffffffffffffffffffffffffffffffff168173ffffffffffffffffffffffffffffffffffffffff1614610e8d576040517f08c379a0000000000000000000000000000000000000000000000000000000008152600401610e8490614009565b60405180910390fd5b610e978282612049565b5050565b610eb68383836040518060200160405280600081525061159d565b505050565b6000610ec5610936565b8210610f06576040517f08c379a0000000000000000000000000000000000000000000000000000000008152600401610efd90613fc9565b60405180910390fd5b600a8281548110610f40577f4e487b7100000000000000000000000000000000000000000000000000000000600052603260045260246000fd5b90600052602060002001549050919050565b610f837f9f2df0fed2c77648de5860a4cc508cd0818c85b8b8a1ab4ceeef8d981c8956a6610f7e611a51565b611457565b610fc2576040517f08c379a0000000000000000000000000000000000000000000000000000000008152600401610fb990613ec9565b60405180910390fd5b60008282905090506000600d54905060005b8281101561104f5761103e858583818110611018577f4e487b7100000000000000000000000000000000000000000000000000000000600052603260045260246000fd5b905060200201602081019061102d91906134eb565b82846110399190614146565b611e27565b80611048906143a8565b9050610fd4565b50818161105c9190614146565b600d8190555050505050565b6000806004600084815260200190815260200160002060009054906101000a900473ffffffffffffffffffffffffffffffffffffffff169050600073ffffffffffffffffffffffffffffffffffffffff168173ffffffffffffffffffffffffffffffffffffffff161415611111576040517f08c379a000000000000000000000000000000000000000000000000000000000815260040161110890613f89565b60405180910390fd5b80915050919050565b61114b7f9f2df0fed2c77648de5860a4cc508cd0818c85b8b8a1ab4ceeef8d981c8956a6611146611a51565b611457565b61118a576040517f08c379a000000000000000000000000000000000000000000000000000000000815260040161118190613ec9565b60405180910390fd5b6000600d54905061119b8282611e27565b6001816111a89190614146565b600d819055505050565b60008073ffffffffffffffffffffffffffffffffffffffff168273ffffffffffffffffffffffffffffffffffffffff161415611223576040517f08c379a000000000000000000000000000000000000000000000000000000000815260040161121a90613ee9565b60405180910390fd5b600560008373ffffffffffffffffffffffffffffffffffffffff1673ffffffffffffffffffffffffffffffffffffffff168152602001908152602001600020549050919050565b60006060611276610936565b915060008214806112875750818410155b156113065781600067ffffffffffffffff8111156112ce577f4e487b7100000000000000000000000000000000000000000000000000000000600052604160045260246000fd5b6040519080825280602002602001820160405280156112fc5781602001602082028036833780820191505090505b5091509150611421565b600061132684866113179190614146565b84611b1290919063ffffffff16565b905084816113349190614227565b67ffffffffffffffff811115611373577f4e487b7100000000000000000000000000000000000000000000000000000000600052604160045260246000fd5b6040519080825280602002602001820160405280156113a15781602001602082028036833780820191505090505b50915060008590505b8181101561141e576113bb81610ebb565b8387836113c89190614227565b815181106113ff577f4e487b7100000000000000000000000000000000000000000000000000000000600052603260045260246000fd5b6020026020010181815250508080611416906143a8565b9150506113aa565b50505b9250929050565b600061144f826001600086815260200190815260200160002061207d90919063ffffffff16565b905092915050565b600080600084815260200190815260200160002060000160008373ffffffffffffffffffffffffffffffffffffffff1673ffffffffffffffffffffffffffffffffffffffff16815260200190815260200160002060009054906101000a900460ff16905092915050565b6060600380546114d090614345565b80601f01602080910402602001604051908101604052809291908181526020018280546114fc90614345565b80156115495780601f1061151e57610100808354040283529160200191611549565b820191906000526020600020905b81548152906001019060200180831161152c57829003601f168201915b5050505050905090565b61157d7f9f2df0fed2c77648de5860a4cc508cd0818c85b8b8a1ab4ceeef8d981c8956a682610d25565b50565b6000801b81565b611599611592611a51565b8383612097565b5050565b6115ae6115a8611a51565b83611b2b565b6115ed576040517f08c379a00000000000000000000000000000000000000000000000000000000081526004016115e490613fe9565b60405180910390fd5b6115f984848484612204565b50505050565b606061160a82612260565b611649576040517f08c379a000000000000000000000000000000000000000000000000000000000815260040161164090613f69565b60405180910390fd5b60006116536122cc565b90506000815111611673576040518060200160405280600081525061169e565b8061167d846122e3565b60405160200161168e929190613cc1565b6040516020818303038152906040525b915050919050565b60006116c360016000848152602001908152602001600020612490565b9050919050565b7f9f2df0fed2c77648de5860a4cc508cd0818c85b8b8a1ab4ceeef8d981c8956a681565b6116f782610c46565b61170081612001565b61170a8383612049565b505050565b7f65d7a28e3265b37a6474929f336521b332c1681b933f6cb9f3376673440d862a81565b6000600760008473ffffffffffffffffffffffffffffffffffffffff1673ffffffffffffffffffffffffffffffffffffffff16815260200190815260200160002060008373ffffffffffffffffffffffffffffffffffffffff1673ffffffffffffffffffffffffffffffffffffffff16815260200190815260200160002060009054906101000a900460ff16905092915050565b600c6020528060005260406000206000915090505481565b6000808273ffffffffffffffffffffffffffffffffffffffff163b119050919050565b61180c8282611457565b6118de57600160008084815260200190815260200160002060000160008373ffffffffffffffffffffffffffffffffffffffff1673ffffffffffffffffffffffffffffffffffffffff16815260200190815260200160002060006101000a81548160ff021916908315150217905550611883611a51565b73ffffffffffffffffffffffffffffffffffffffff168173ffffffffffffffffffffffffffffffffffffffff16837f2f8788117e7eff1d82e926ec794901d17c78024a50270940304540a733656f0d60405160405180910390a45b5050565b600061190a836000018373ffffffffffffffffffffffffffffffffffffffff1660001b6124a5565b905092915050565b60007f5a05180f000000000000000000000000000000000000000000000000000000007bffffffffffffffffffffffffffffffffffffffffffffffffffffffff1916827bffffffffffffffffffffffffffffffffffffffffffffffffffffffff19161480611985575061198482612515565b5b9050919050565b60007f780e9d63000000000000000000000000000000000000000000000000000000007bffffffffffffffffffffffffffffffffffffffffffffffffffffffff1916827bffffffffffffffffffffffffffffffffffffffffffffffffffffffff191614806119ff57506119fe8261258f565b5b9050919050565b611a0f81612260565b611a4e576040517f08c379a0000000000000000000000000000000000000000000000000000000008152600401611a4590613f89565b60405180910390fd5b50565b600033905090565b816006600083815260200190815260200160002060006101000a81548173ffffffffffffffffffffffffffffffffffffffff021916908373ffffffffffffffffffffffffffffffffffffffff160217905550808273ffffffffffffffffffffffffffffffffffffffff16611acc83611068565b73ffffffffffffffffffffffffffffffffffffffff167f8c5be1e5ebec7d5bd14f71427d1e84f3dd0314c0f7b2291e5b200ac8c7c3b92560405160405180910390a45050565b6000818310611b215781611b23565b825b905092915050565b600080611b3783611068565b90508073ffffffffffffffffffffffffffffffffffffffff168473ffffffffffffffffffffffffffffffffffffffff161480611b795750611b788185611733565b5b80611bb757508373ffffffffffffffffffffffffffffffffffffffff16611b9f846107d8565b73ffffffffffffffffffffffffffffffffffffffff16145b91505092915050565b8273ffffffffffffffffffffffffffffffffffffffff16611be082611068565b73ffffffffffffffffffffffffffffffffffffffff1614611c36576040517f08c379a0000000000000000000000000000000000000000000000000000000008152600401611c2d90613e49565b60405180910390fd5b600073ffffffffffffffffffffffffffffffffffffffff168273ffffffffffffffffffffffffffffffffffffffff161415611ca6576040517f08c379a0000000000000000000000000000000000000000000000000000000008152600401611c9d90613e89565b60405180910390fd5b611cb1838383612671565b611cbc600082611a59565b6001600560008573ffffffffffffffffffffffffffffffffffffffff1673ffffffffffffffffffffffffffffffffffffffff1681526020019081526020016000206000828254611d0c9190614227565b925050819055506001600560008473ffffffffffffffffffffffffffffffffffffffff1673ffffffffffffffffffffffffffffffffffffffff1681526020019081526020016000206000828254611d639190614146565b92505081905550816004600083815260200190815260200160002060006101000a81548173ffffffffffffffffffffffffffffffffffffffff021916908373ffffffffffffffffffffffffffffffffffffffff160217905550808273ffffffffffffffffffffffffffffffffffffffff168473ffffffffffffffffffffffffffffffffffffffff167fddf252ad1be2c89b69c2b068fc378daa952ba7f163c4a11628f55a4df523b3ef60405160405180910390a4611e22838383612785565b505050565b600073ffffffffffffffffffffffffffffffffffffffff168273ffffffffffffffffffffffffffffffffffffffff161415611e97576040517f08c379a0000000000000000000000000000000000000000000000000000000008152600401611e8e90613f29565b60405180910390fd5b611ea081612260565b15611ee0576040517f08c379a0000000000000000000000000000000000000000000000000000000008152600401611ed790613e69565b60405180910390fd5b611eec60008383612671565b6001600560008473ffffffffffffffffffffffffffffffffffffffff1673ffffffffffffffffffffffffffffffffffffffff1681526020019081526020016000206000828254611f3c9190614146565b92505081905550816004600083815260200190815260200160002060006101000a81548173ffffffffffffffffffffffffffffffffffffffff021916908373ffffffffffffffffffffffffffffffffffffffff160217905550808273ffffffffffffffffffffffffffffffffffffffff16600073ffffffffffffffffffffffffffffffffffffffff167fddf252ad1be2c89b69c2b068fc378daa952ba7f163c4a11628f55a4df523b3ef60405160405180910390a4611ffd60008383612785565b5050565b6120128161200d611a51565b61278a565b50565b61201f8282611802565b61204481600160008581526020019081526020016000206118e290919063ffffffff16565b505050565b6120538282612827565b612078816001600085815260200190815260200160002061290890919063ffffffff16565b505050565b600061208c8360000183612938565b60001c905092915050565b8173ffffffffffffffffffffffffffffffffffffffff168373ffffffffffffffffffffffffffffffffffffffff161415612106576040517f08c379a00000000000000000000000000000000000000000000000000000000081526004016120fd90613ea9565b60405180910390fd5b80600760008573ffffffffffffffffffffffffffffffffffffffff1673ffffffffffffffffffffffffffffffffffffffff16815260200190815260200160002060008473ffffffffffffffffffffffffffffffffffffffff1673ffffffffffffffffffffffffffffffffffffffff16815260200190815260200160002060006101000a81548160ff0219169083151502179055508173ffffffffffffffffffffffffffffffffffffffff168373ffffffffffffffffffffffffffffffffffffffff167f17307eab39ab6107e8899845ad3d59bd9653f200f220920489ca2b5937696c31836040516121f79190613d91565b60405180910390a3505050565b61220f848484611bc0565b61221b84848484612989565b61225a576040517f08c379a000000000000000000000000000000000000000000000000000000000815260040161225190613e29565b60405180910390fd5b50505050565b60008073ffffffffffffffffffffffffffffffffffffffff166004600084815260200190815260200160002060009054906101000a900473ffffffffffffffffffffffffffffffffffffffff1673ffffffffffffffffffffffffffffffffffffffff1614159050919050565b606060405180602001604052806000815250905090565b6060600082141561232b576040518060400160405280600181526020017f3000000000000000000000000000000000000000000000000000000000000000815250905061248b565b600082905060005b6000821461235d578080612346906143a8565b915050600a82612356919061419c565b9150612333565b60008167ffffffffffffffff81111561239f577f4e487b7100000000000000000000000000000000000000000000000000000000600052604160045260246000fd5b6040519080825280601f01601f1916602001820160405280156123d15781602001600182028036833780820191505090505b5090505b60008514612484576001826123ea9190614227565b9150600a856123f991906143f1565b60306124059190614146565b60f81b818381518110612441577f4e487b7100000000000000000000000000000000000000000000000000000000600052603260045260246000fd5b60200101907effffffffffffffffffffffffffffffffffffffffffffffffffffffffffffff1916908160001a905350600a8561247d919061419c565b94506123d5565b8093505050505b919050565b600061249e82600001612b20565b9050919050565b60006124b18383612b31565b61250a57826000018290806001815401808255809150506001900390600052602060002001600090919091909150558260000180549050836001016000848152602001908152602001600020819055506001905061250f565b600090505b92915050565b60007f7965db0b000000000000000000000000000000000000000000000000000000007bffffffffffffffffffffffffffffffffffffffffffffffffffffffff1916827bffffffffffffffffffffffffffffffffffffffffffffffffffffffff19161480612588575061258782612b54565b5b9050919050565b60007f80ac58cd000000000000000000000000000000000000000000000000000000007bffffffffffffffffffffffffffffffffffffffffffffffffffffffff1916827bffffffffffffffffffffffffffffffffffffffffffffffffffffffff1916148061265a57507f5b5e139f000000000000000000000000000000000000000000000000000000007bffffffffffffffffffffffffffffffffffffffffffffffffffffffff1916827bffffffffffffffffffffffffffffffffffffffffffffffffffffffff1916145b8061266a575061266982611912565b5b9050919050565b61267c838383612bbe565b600073ffffffffffffffffffffffffffffffffffffffff168373ffffffffffffffffffffffffffffffffffffffff1614156126bf576126ba81612bc3565b6126fe565b8173ffffffffffffffffffffffffffffffffffffffff168373ffffffffffffffffffffffffffffffffffffffff16146126fd576126fc8382612c0c565b5b5b600073ffffffffffffffffffffffffffffffffffffffff168273ffffffffffffffffffffffffffffffffffffffff1614156127415761273c81612d79565b612780565b8273ffffffffffffffffffffffffffffffffffffffff168273ffffffffffffffffffffffffffffffffffffffff161461277f5761277e8282612ebc565b5b5b505050565b505050565b6127948282611457565b612823576127b98173ffffffffffffffffffffffffffffffffffffffff166014612f3b565b6127c78360001c6020612f3b565b6040516020016127d8929190613cf0565b6040516020818303038152906040526040517f08c379a000000000000000000000000000000000000000000000000000000000815260040161281a9190613dc7565b60405180910390fd5b5050565b6128318282611457565b1561290457600080600084815260200190815260200160002060000160008373ffffffffffffffffffffffffffffffffffffffff1673ffffffffffffffffffffffffffffffffffffffff16815260200190815260200160002060006101000a81548160ff0219169083151502179055506128a9611a51565b73ffffffffffffffffffffffffffffffffffffffff168173ffffffffffffffffffffffffffffffffffffffff16837ff6391f5c32d9c69d2a47ea670b442974b53935d1edc7fd64eb21e047a839171b60405160405180910390a45b5050565b6000612930836000018373ffffffffffffffffffffffffffffffffffffffff1660001b613235565b905092915050565b6000826000018281548110612976577f4e487b7100000000000000000000000000000000000000000000000000000000600052603260045260246000fd5b9060005260206000200154905092915050565b60006129aa8473ffffffffffffffffffffffffffffffffffffffff166117df565b15612b13578373ffffffffffffffffffffffffffffffffffffffff1663150b7a026129d3611a51565b8786866040518563ffffffff1660e01b81526004016129f59493929190613d45565b602060405180830381600087803b158015612a0f57600080fd5b505af1925050508015612a4057506040513d601f19601f82011682018060405250810190612a3d91906137f0565b60015b612ac3573d8060008114612a70576040519150601f19603f3d011682016040523d82523d6000602084013e612a75565b606091505b50600081511415612abb576040517f08c379a0000000000000000000000000000000000000000000000000000000008152600401612ab290613e29565b60405180910390fd5b805181602001fd5b63150b7a0260e01b7bffffffffffffffffffffffffffffffffffffffffffffffffffffffff1916817bffffffffffffffffffffffffffffffffffffffffffffffffffffffff191614915050612b18565b600190505b949350505050565b600081600001805490509050919050565b600080836001016000848152602001908152602001600020541415905092915050565b60007f01ffc9a7000000000000000000000000000000000000000000000000000000007bffffffffffffffffffffffffffffffffffffffffffffffffffffffff1916827bffffffffffffffffffffffffffffffffffffffffffffffffffffffff1916149050919050565b505050565b600a80549050600b600083815260200190815260200160002081905550600a81908060018154018082558091505060019003906000526020600020016000909190919091505550565b60006001612c19846111b2565b612c239190614227565b9050600060096000848152602001908152602001600020549050818114612d08576000600860008673ffffffffffffffffffffffffffffffffffffffff1673ffffffffffffffffffffffffffffffffffffffff168152602001908152602001600020600084815260200190815260200160002054905080600860008773ffffffffffffffffffffffffffffffffffffffff1673ffffffffffffffffffffffffffffffffffffffff168152602001908152602001600020600084815260200190815260200160002081905550816009600083815260200190815260200160002081905550505b6009600084815260200190815260200160002060009055600860008573ffffffffffffffffffffffffffffffffffffffff1673ffffffffffffffffffffffffffffffffffffffff16815260200190815260200160002060008381526020019081526020016000206000905550505050565b60006001600a80549050612d8d9190614227565b90506000600b60008481526020019081526020016000205490506000600a8381548110612de3577f4e487b7100000000000000000000000000000000000000000000000000000000600052603260045260246000fd5b9060005260206000200154905080600a8381548110612e2b577f4e487b7100000000000000000000000000000000000000000000000000000000600052603260045260246000fd5b906000526020600020018190555081600b600083815260200190815260200160002081905550600b600085815260200190815260200160002060009055600a805480612ea0577f4e487b7100000000000000000000000000000000000000000000000000000000600052603160045260246000fd5b6001900381819060005260206000200160009055905550505050565b6000612ec7836111b2565b905081600860008573ffffffffffffffffffffffffffffffffffffffff1673ffffffffffffffffffffffffffffffffffffffff168152602001908152602001600020600083815260200190815260200160002081905550806009600084815260200190815260200160002081905550505050565b606060006002836002612f4e91906141cd565b612f589190614146565b67ffffffffffffffff811115612f97577f4e487b7100000000000000000000000000000000000000000000000000000000600052604160045260246000fd5b6040519080825280601f01601f191660200182016040528015612fc95781602001600182028036833780820191505090505b5090507f300000000000000000000000000000000000000000000000000000000000000081600081518110613027577f4e487b7100000000000000000000000000000000000000000000000000000000600052603260045260246000fd5b60200101907effffffffffffffffffffffffffffffffffffffffffffffffffffffffffffff1916908160001a9053507f7800000000000000000000000000000000000000000000000000000000000000816001815181106130b1577f4e487b7100000000000000000000000000000000000000000000000000000000600052603260045260246000fd5b60200101907effffffffffffffffffffffffffffffffffffffffffffffffffffffffffffff1916908160001a905350600060018460026130f191906141cd565b6130fb9190614146565b90505b60018111156131e7577f3031323334353637383961626364656600000000000000000000000000000000600f861660108110613163577f4e487b7100000000000000000000000000000000000000000000000000000000600052603260045260246000fd5b1a60f81b8282815181106131a0577f4e487b7100000000000000000000000000000000000000000000000000000000600052603260045260246000fd5b60200101907effffffffffffffffffffffffffffffffffffffffffffffffffffffffffffff1916908160001a905350600485901c9450806131e09061431b565b90506130fe565b506000841461322b576040517f08c379a000000000000000000000000000000000000000000000000000000000815260040161322290613de9565b60405180910390fd5b8091505092915050565b600080836001016000848152602001908152602001600020549050600081146133af5760006001826132679190614227565b905060006001866000018054905061327f9190614227565b905081811461333a5760008660000182815481106132c6577f4e487b7100000000000000000000000000000000000000000000000000000000600052603260045260246000fd5b9060005260206000200154905080876000018481548110613310577f4e487b7100000000000000000000000000000000000000000000000000000000600052603260045260246000fd5b90600052602060002001819055508387600101600083815260200190815260200160002081905550505b85600001805480613374577f4e487b7100000000000000000000000000000000000000000000000000000000600052603160045260246000fd5b6001900381819060005260206000200160009055905585600101600086815260200190815260200160002060009055600193505050506133b5565b60009150505b92915050565b60006133ce6133c984614099565b614074565b9050828152602081018484840111156133e657600080fd5b6133f18482856142d9565b509392505050565b60008135905061340881614a3a565b92915050565b60008083601f84011261342057600080fd5b8235905067ffffffffffffffff81111561343957600080fd5b60208301915083602082028301111561345157600080fd5b9250929050565b60008135905061346781614a51565b92915050565b60008135905061347c81614a68565b92915050565b60008135905061349181614a7f565b92915050565b6000815190506134a681614a7f565b92915050565b600082601f8301126134bd57600080fd5b81356134cd8482602086016133bb565b91505092915050565b6000813590506134e581614a96565b92915050565b6000602082840312156134fd57600080fd5b600061350b848285016133f9565b91505092915050565b6000806040838503121561352757600080fd5b6000613535858286016133f9565b9250506020613546858286016133f9565b9150509250929050565b60008060006060848603121561356557600080fd5b6000613573868287016133f9565b9350506020613584868287016133f9565b9250506040613595868287016134d6565b9150509250925092565b600080600080608085870312156135b557600080fd5b60006135c3878288016133f9565b94505060206135d4878288016133f9565b93505060406135e5878288016134d6565b925050606085013567ffffffffffffffff81111561360257600080fd5b61360e878288016134ac565b91505092959194509250565b6000806040838503121561362d57600080fd5b600061363b858286016133f9565b925050602061364c85828601613458565b9150509250929050565b6000806040838503121561366957600080fd5b6000613677858286016133f9565b9250506020613688858286016134d6565b9150509250929050565b6000806000606084860312156136a757600080fd5b60006136b5868287016133f9565b93505060206136c6868287016134d6565b92505060406136d7868287016134d6565b9150509250925092565b600080602083850312156136f457600080fd5b600083013567ffffffffffffffff81111561370e57600080fd5b61371a8582860161340e565b92509250509250929050565b60006020828403121561373857600080fd5b60006137468482850161346d565b91505092915050565b6000806040838503121561376257600080fd5b60006137708582860161346d565b9250506020613781858286016133f9565b9150509250929050565b6000806040838503121561379e57600080fd5b60006137ac8582860161346d565b92505060206137bd858286016134d6565b9150509250929050565b6000602082840312156137d957600080fd5b60006137e784828501613482565b91505092915050565b60006020828403121561380257600080fd5b600061381084828501613497565b91505092915050565b60006020828403121561382b57600080fd5b6000613839848285016134d6565b91505092915050565b6000806040838503121561385557600080fd5b6000613863858286016134d6565b9250506020613874858286016134d6565b9150509250929050565b600061388a8383613ca3565b60208301905092915050565b61389f8161425b565b82525050565b60006138b0826140da565b6138ba8185614108565b93506138c5836140ca565b8060005b838110156138f65781516138dd888261387e565b97506138e8836140fb565b9250506001810190506138c9565b5085935050505092915050565b61390c8161426d565b82525050565b61391b81614279565b82525050565b600061392c826140e5565b6139368185614119565b93506139468185602086016142e8565b61394f816144de565b840191505092915050565b6000613965826140f0565b61396f818561412a565b935061397f8185602086016142e8565b613988816144de565b840191505092915050565b600061399e826140f0565b6139a8818561413b565b93506139b88185602086016142e8565b80840191505092915050565b60006139d160208361412a565b91506139dc826144ef565b602082019050919050565b60006139f4602b8361412a565b91506139ff82614518565b604082019050919050565b6000613a1760328361412a565b9150613a2282614567565b604082019050919050565b6000613a3a60258361412a565b9150613a45826145b6565b604082019050919050565b6000613a5d601c8361412a565b9150613a6882614605565b602082019050919050565b6000613a8060248361412a565b9150613a8b8261462e565b604082019050919050565b6000613aa360198361412a565b9150613aae8261467d565b602082019050919050565b6000613ac660318361412a565b9150613ad1826146a6565b604082019050919050565b6000613ae960298361412a565b9150613af4826146f5565b604082019050919050565b6000613b0c603e8361412a565b9150613b1782614744565b604082019050919050565b6000613b2f60208361412a565b9150613b3a82614793565b602082019050919050565b6000613b5260388361412a565b9150613b5d826147bc565b604082019050919050565b6000613b7560058361413b565b9150613b808261480b565b600582019050919050565b6000613b98602f8361412a565b9150613ba382614834565b604082019050919050565b6000613bbb60188361412a565b9150613bc682614883565b602082019050919050565b6000613bde60218361412a565b9150613be9826148ac565b604082019050919050565b6000613c01602c8361412a565b9150613c0c826148fb565b604082019050919050565b6000613c2460178361413b565b9150613c2f8261494a565b601782019050919050565b6000613c47602e8361412a565b9150613c5282614973565b604082019050919050565b6000613c6a60118361413b565b9150613c75826149c2565b601182019050919050565b6000613c8d602f8361412a565b9150613c98826149eb565b604082019050919050565b613cac816142cf565b82525050565b613cbb816142cf565b82525050565b6000613ccd8285613993565b9150613cd98284613993565b9150613ce482613b68565b91508190509392505050565b6000613cfb82613c17565b9150613d078285613993565b9150613d1282613c5d565b9150613d1e8284613993565b91508190509392505050565b6000602082019050613d3f6000830184613896565b92915050565b6000608082019050613d5a6000830187613896565b613d676020830186613896565b613d746040830185613cb2565b8181036060830152613d868184613921565b905095945050505050565b6000602082019050613da66000830184613903565b92915050565b6000602082019050613dc16000830184613912565b92915050565b60006020820190508181036000830152613de1818461395a565b905092915050565b60006020820190508181036000830152613e02816139c4565b9050919050565b60006020820190508181036000830152613e22816139e7565b9050919050565b60006020820190508181036000830152613e4281613a0a565b9050919050565b60006020820190508181036000830152613e6281613a2d565b9050919050565b60006020820190508181036000830152613e8281613a50565b9050919050565b60006020820190508181036000830152613ea281613a73565b9050919050565b60006020820190508181036000830152613ec281613a96565b9050919050565b60006020820190508181036000830152613ee281613ab9565b9050919050565b60006020820190508181036000830152613f0281613adc565b9050919050565b60006020820190508181036000830152613f2281613aff565b9050919050565b60006020820190508181036000830152613f4281613b22565b9050919050565b60006020820190508181036000830152613f6281613b45565b9050919050565b60006020820190508181036000830152613f8281613b8b565b9050919050565b60006020820190508181036000830152613fa281613bae565b9050919050565b60006020820190508181036000830152613fc281613bd1565b9050919050565b60006020820190508181036000830152613fe281613bf4565b9050919050565b6000602082019050818103600083015261400281613c3a565b9050919050565b6000602082019050818103600083015261402281613c80565b9050919050565b600060208201905061403e6000830184613cb2565b92915050565b60006040820190506140596000830185613cb2565b818103602083015261406b81846138a5565b90509392505050565b600061407e61408f565b905061408a8282614377565b919050565b6000604051905090565b600067ffffffffffffffff8211156140b4576140b36144af565b5b6140bd826144de565b9050602081019050919050565b6000819050602082019050919050565b600081519050919050565b600081519050919050565b600081519050919050565b6000602082019050919050565b600082825260208201905092915050565b600082825260208201905092915050565b600082825260208201905092915050565b600081905092915050565b6000614151826142cf565b915061415c836142cf565b9250827fffffffffffffffffffffffffffffffffffffffffffffffffffffffffffffffff0382111561419157614190614422565b5b828201905092915050565b60006141a7826142cf565b91506141b2836142cf565b9250826141c2576141c1614451565b5b828204905092915050565b60006141d8826142cf565b91506141e3836142cf565b9250817fffffffffffffffffffffffffffffffffffffffffffffffffffffffffffffffff048311821515161561421c5761421b614422565b5b828202905092915050565b6000614232826142cf565b915061423d836142cf565b9250828210156142505761424f614422565b5b828203905092915050565b6000614266826142af565b9050919050565b60008115159050919050565b6000819050919050565b60007fffffffff0000000000000000000000000000000000000000000000000000000082169050919050565b600073ffffffffffffffffffffffffffffffffffffffff82169050919050565b6000819050919050565b82818337600083830152505050565b60005b838110156143065780820151818401526020810190506142eb565b83811115614315576000848401525b50505050565b6000614326826142cf565b9150600082141561433a57614339614422565b5b600182039050919050565b6000600282049050600182168061435d57607f821691505b6020821081141561437157614370614480565b5b50919050565b614380826144de565b810181811067ffffffffffffffff8211171561439f5761439e6144af565b5b80604052505050565b60006143b3826142cf565b91507fffffffffffffffffffffffffffffffffffffffffffffffffffffffffffffffff8214156143e6576143e5614422565b5b600182019050919050565b60006143fc826142cf565b9150614407836142cf565b92508261441757614416614451565b5b828206905092915050565b7f4e487b7100000000000000000000000000000000000000000000000000000000600052601160045260246000fd5b7f4e487b7100000000000000000000000000000000000000000000000000000000600052601260045260246000fd5b7f4e487b7100000000000000000000000000000000000000000000000000000000600052602260045260246000fd5b7f4e487b7100000000000000000000000000000000000000000000000000000000600052604160045260246000fd5b6000601f19601f8301169050919050565b7f537472696e67733a20686578206c656e67746820696e73756666696369656e74600082015250565b7f455243373231456e756d657261626c653a206f776e657220696e646578206f7560008201527f74206f6620626f756e6473000000000000000000000000000000000000000000602082015250565b7f4552433732313a207472616e7366657220746f206e6f6e20455243373231526560008201527f63656976657220696d706c656d656e7465720000000000000000000000000000602082015250565b7f4552433732313a207472616e736665722066726f6d20696e636f72726563742060008201527f6f776e6572000000000000000000000000000000000000000000000000000000602082015250565b7f4552433732313a20746f6b656e20616c7265616479206d696e74656400000000600082015250565b7f4552433732313a207472616e7366657220746f20746865207a65726f2061646460008201527f7265737300000000000000000000000000000000000000000000000000000000602082015250565b7f4552433732313a20617070726f766520746f2063616c6c657200000000000000600082015250565b7f4352433732314e61747572654175746f49643a206d7573742068617665206d6960008201527f6e74657220726f6c6520746f206d696e74000000000000000000000000000000602082015250565b7f4552433732313a2061646472657373207a65726f206973206e6f74206120766160008201527f6c6964206f776e65720000000000000000000000000000000000000000000000602082015250565b7f4552433732313a20617070726f76652063616c6c6572206973206e6f7420746f60008201527f6b656e206f776e6572206e6f7220617070726f76656420666f7220616c6c0000602082015250565b7f4552433732313a206d696e7420746f20746865207a65726f2061646472657373600082015250565b7f4352433732314e61747572654175746f49643a20746f6b656e2046656174757260008201527f6520436f646520697320616c7265616479207365742075700000000000000000602082015250565b7f2e6a736f6e000000000000000000000000000000000000000000000000000000600082015250565b7f4552433732314d657461646174613a2055524920717565727920666f72206e6f60008201527f6e6578697374656e7420746f6b656e0000000000000000000000000000000000602082015250565b7f4552433732313a20696e76616c696420746f6b656e2049440000000000000000600082015250565b7f4552433732313a20617070726f76616c20746f2063757272656e74206f776e6560008201527f7200000000000000000000000000000000000000000000000000000000000000602082015250565b7f455243373231456e756d657261626c653a20676c6f62616c20696e646578206f60008201527f7574206f6620626f756e64730000000000000000000000000000000000000000602082015250565b7f416363657373436f6e74726f6c3a206163636f756e7420000000000000000000600082015250565b7f4552433732313a2063616c6c6572206973206e6f7420746f6b656e206f776e6560008201527f72206e6f7220617070726f766564000000000000000000000000000000000000602082015250565b7f206973206d697373696e6720726f6c6520000000000000000000000000000000600082015250565b7f416363657373436f6e74726f6c3a2063616e206f6e6c792072656e6f756e636560008201527f20726f6c657320666f722073656c660000000000000000000000000000000000602082015250565b614a438161425b565b8114614a4e57600080fd5b50565b614a5a8161426d565b8114614a6557600080fd5b50565b614a7181614279565b8114614a7c57600080fd5b50565b614a8881614283565b8114614a9357600080fd5b50565b614a9f816142cf565b8114614aaa57600080fd5b5056fea2646970667358221220d03d30674d133606fb8f28b7501cba834b0f8ac7982792c5b5c6f3eb131b77b164736f6c63430008010033",
  "immutableReferences": {},
  "source": "// SPDX-License-Identifier: MIT\npragma solidity ^0.8.0;\n\nimport \"@confluxfans/contracts/token/CRC721/extensions/CRC721Enumerable.sol\";\nimport \"@confluxfans/contracts/InternalContracts/InternalContractsHandler.sol\";\nimport \"@openzeppelin/contracts/access/AccessControlEnumerable.sol\";\n\ncontract TestNFT is\n  AccessControlEnumerable,\n  CRC721Enumerable,\n  InternalContractsHandler\n{\n  using Strings for uint256;\n\n  // string private _URI;\n\n  // tokenId => FeatureCode, the Feature code is generally md5 code for resource files such as images or videos.\n  mapping(uint256 => uint256) public tokenFeatureCode;\n\n  // Counter to auto generate token ID.\n  uint256 private _currentTokenId;\n  bytes32 public constant MINTER_ROLE = keccak256(\"MINTER_ROLE\");\n  bytes32 public constant PAUSER_ROLE = keccak256(\"PAUSER_ROLE\");\n\n  constructor(\n    string memory name_,\n    string memory symbol_\n    // string memory uri_\n  ) ERC721(name_, symbol_) {\n    _setupRole(DEFAULT_ADMIN_ROLE, _msgSender());\n\n    _setupRole(MINTER_ROLE, _msgSender());\n    _setupRole(PAUSER_ROLE, _msgSender());\n\n    // setURI(uri_);\n\n    _currentTokenId = 1;\n  }\n\n  //simple code for add a account as minter\n  function addMinter(address minter_) external {\n    grantRole(MINTER_ROLE, minter_);\n  }\n\n  function removeMinter(address minter_) external {\n    revokeRole(MINTER_ROLE, minter_);\n  }\n\n  /**\n   * @dev Update the URI for all tokens.\n   *\n   * Requirements:\n   *\n   * - the caller must have the `DEFAULT_ADMIN_ROLE`.\n   */\n  // function setURI(string memory newuri) public virtual {\n  //   require(\n  //     hasRole(DEFAULT_ADMIN_ROLE, _msgSender()),\n  //     \"CRC721NatureAutoId: must have admin role to set URI\"\n  //   );\n  //   _URI = newuri;\n  // }\n\n  /**\n   * @dev Base URI for computing {tokenURI}. If set, the resulting URI for each\n   * token will be the concatenation of the `baseURI` and the `tokenId`. Empty\n   * by default, can be overriden in child contracts.\n   */\n  // function _baseURI() internal view virtual override returns (string memory) {\n  //   return _URI;\n  // }\n\n  /**\n   * @dev See {IERC721Metadata-tokenURI}.\n   */\n  function tokenURI(uint256 tokenId)\n    public\n    view\n    virtual\n    override(ERC721)\n    returns (string memory)\n  {\n    require(\n      _exists(tokenId),\n      \"ERC721Metadata: URI query for nonexistent token\"\n    );\n\n    string memory baseURI = _baseURI();\n    return\n      bytes(baseURI).length > 0\n        ? string(abi.encodePacked(baseURI, tokenId.toString(), \".json\"))\n        : \"\";\n  }\n\n  /**\n   * @dev Creates a new token for `to`. Its token ID will be automatically\n   * assigned (and available on the emitted {IERC721-Transfer} event), and the token\n   * URI autogenerated based on the base URI passed at construction.\n   *\n   * See {ERC721-_mint}.\n   *\n   * Requirements:\n   *\n   * - the caller must have the `MINTER_ROLE`.\n   */\n  function mint(address to) public virtual {\n    require(\n      hasRole(MINTER_ROLE, _msgSender()),\n      \"CRC721NatureAutoId: must have minter role to mint\"\n    );\n    uint256 tokenId = _currentTokenId;\n    _mint(to, tokenId);\n    _currentTokenId = tokenId + 1;\n  }\n\n  /**\n   * @dev Batch version of mint function\n   */\n  function mintBatch(address to, uint256 amount) public virtual {\n    require(\n      hasRole(MINTER_ROLE, _msgSender()),\n      \"CRC721NatureAutoId: must have minter role to mint\"\n    );\n    uint256 tokenId = _currentTokenId;\n    for (uint256 index = 0; index < amount; ++index) _mint(to, tokenId + index);\n    _currentTokenId = tokenId + amount;\n  }\n\n  //chy:Batch airdrop method, giving a group of accounts each airdrop 1 nft with a parsimonious id.\n  function batchAddItemByAddress(address[] calldata _initialOwners) public {\n    require(\n      hasRole(MINTER_ROLE, _msgSender()),\n      \"CRC721NatureAutoId: must have minter role to mint\"\n    );\n    uint256 _length = _initialOwners.length;\n    uint256 tokenId = _currentTokenId;\n    for (uint256 i = 0; i < _length; ++i) {\n      _mint(_initialOwners[i], tokenId + i);\n    }\n    _currentTokenId = tokenId + _length;\n  }\n\n  //Optional functionsThe feature code can only be set once for each id, and then it can never be change again\n  function setTokenFeatureCode(uint256 tokenId, uint256 featureCode)\n    public\n    virtual\n  {\n    require(\n      hasRole(MINTER_ROLE, _msgSender()),\n      \"CRC721NatureAutoId: must have minter role to mint\"\n    );\n    require(\n      tokenFeatureCode[tokenId] == 0,\n      \"CRC721NatureAutoId: token Feature Code is already set up\"\n    );\n    tokenFeatureCode[tokenId] = featureCode;\n  }\n\n  /**\n   * @dev See {IERC165-supportsInterface}.\n   */\n  function supportsInterface(bytes4 interfaceId)\n    public\n    view\n    virtual\n    override(AccessControlEnumerable, ERC721Enumerable)\n    returns (bool)\n  {\n    return\n      AccessControlEnumerable.supportsInterface(interfaceId) ||\n      ERC721Enumerable.supportsInterface(interfaceId);\n  }\n}\n",
  "sourcePath": "/Users/sjrrr/Fudan/Semester4-1/Internship/Conflux/Test/contracts/TestNFT.sol",
  "compiler": {
    "name": "solc",
    "version": "0.8.1+commit.df193b15.Emscripten.clang"
  },
  "schemaVersion": "3.3.4",
  "updatedAt": "2022-08-09T06:55:17.887Z",
  "networkType": "conflux",
  "devdoc": {
    "kind": "dev",
    "methods": {
      "approve(address,uint256)": {
        "details": "See {IERC721-approve}."
      },
      "balanceOf(address)": {
        "details": "See {IERC721-balanceOf}."
      },
      "getApproved(uint256)": {
        "details": "See {IERC721-getApproved}."
      },
      "getRoleAdmin(bytes32)": {
        "details": "Returns the admin role that controls `role`. See {grantRole} and {revokeRole}. To change a role's admin, use {_setRoleAdmin}."
      },
      "getRoleMember(bytes32,uint256)": {
        "details": "Returns one of the accounts that have `role`. `index` must be a value between 0 and {getRoleMemberCount}, non-inclusive. Role bearers are not sorted in any particular way, and their ordering may change at any point. WARNING: When using {getRoleMember} and {getRoleMemberCount}, make sure you perform all queries on the same block. See the following https://forum.openzeppelin.com/t/iterating-over-elements-on-enumerableset-in-openzeppelin-contracts/2296[forum post] for more information."
      },
      "getRoleMemberCount(bytes32)": {
        "details": "Returns the number of accounts that have `role`. Can be used together with {getRoleMember} to enumerate all bearers of a role."
      },
      "grantRole(bytes32,address)": {
        "details": "Grants `role` to `account`. If `account` had not been already granted `role`, emits a {RoleGranted} event. Requirements: - the caller must have ``role``'s admin role. May emit a {RoleGranted} event."
      },
      "hasRole(bytes32,address)": {
        "details": "Returns `true` if `account` has been granted `role`."
      },
      "isApprovedForAll(address,address)": {
        "details": "See {IERC721-isApprovedForAll}."
      },
      "mint(address)": {
        "details": "Creates a new token for `to`. Its token ID will be automatically assigned (and available on the emitted {IERC721-Transfer} event), and the token URI autogenerated based on the base URI passed at construction. See {ERC721-_mint}. Requirements: - the caller must have the `MINTER_ROLE`."
      },
      "mintBatch(address,uint256)": {
        "details": "Batch version of mint function"
      },
      "name()": {
        "details": "See {IERC721Metadata-name}."
      },
      "ownerOf(uint256)": {
        "details": "See {IERC721-ownerOf}."
      },
      "renounceRole(bytes32,address)": {
        "details": "Revokes `role` from the calling account. Roles are often managed via {grantRole} and {revokeRole}: this function's purpose is to provide a mechanism for accounts to lose their privileges if they are compromised (such as when a trusted device is misplaced). If the calling account had been revoked `role`, emits a {RoleRevoked} event. Requirements: - the caller must be `account`. May emit a {RoleRevoked} event."
      },
      "revokeRole(bytes32,address)": {
        "details": "Revokes `role` from `account`. If `account` had been granted `role`, emits a {RoleRevoked} event. Requirements: - the caller must have ``role``'s admin role. May emit a {RoleRevoked} event."
      },
      "safeTransferFrom(address,address,uint256)": {
        "details": "See {IERC721-safeTransferFrom}."
      },
      "safeTransferFrom(address,address,uint256,bytes)": {
        "details": "See {IERC721-safeTransferFrom}."
      },
      "setApprovalForAll(address,bool)": {
        "details": "See {IERC721-setApprovalForAll}."
      },
      "supportsInterface(bytes4)": {
        "details": "See {IERC165-supportsInterface}."
      },
      "symbol()": {
        "details": "See {IERC721Metadata-symbol}."
      },
      "tokenByIndex(uint256)": {
        "details": "See {IERC721Enumerable-tokenByIndex}."
      },
      "tokenOfOwnerByIndex(address,uint256)": {
        "details": "See {IERC721Enumerable-tokenOfOwnerByIndex}."
      },
      "tokenURI(uint256)": {
        "details": "See {IERC721Metadata-tokenURI}."
      },
      "tokens(uint256,uint256)": {
        "details": "Returns token IDs in pagination view."
      },
      "tokensOf(address,uint256,uint256)": {
        "details": "Returns token IDs of specified `owner` in pagination view."
      },
      "totalSupply()": {
        "details": "See {IERC721Enumerable-totalSupply}."
      },
      "transferFrom(address,address,uint256)": {
        "details": "See {IERC721-transferFrom}."
      }
    },
    "version": 1
  },
  "userdoc": {
    "kind": "user",
    "methods": {},
    "version": 1
  }
}